{
  "hash": "0ee5478728c534ec88183cc6e6ef3c7283c01984ac2cd43076eb4cb16d844a22",
  "confirmations": 14040,
  "strippedsize": 5417,
  "size": 5417,
  "weight": 21668,
  "height": 5214403,
  "version": 6422788,
  "versionHex": "00620104",
  "merkleroot": "a7d8fbf62e12dda364d6277d8d1a13e82eba2a17e803a56e9f1001756a9af3a7",
  "tx": [
    "4461ffa470297868f728aa7ef76c4c771f3db6d64916095c940e4926322ed675",
    "f6c003e5f4cabaa74aaac24a179a6167a4b63e5e8cb101b4e6aaff891b2362f3",
    "6806fa65dfd982e36278d9ac0829db1ecaa6e11bbae5fbaab5d5a476a561d201",
    "0b7a74ff640a1d4dcd2f06f680bb4c23bc93479f00b22f251abdc6578764c296",
    "e9e5b0275e0041d2eac2dff711c79136de4cc53323f1673266a1b81571a4424e",
    "22835b8aa411a0f9eb1b8c17676279518a79a564a9ecb6fdeb656f3ec9ef460c",
    "0d2908fdb557fbdd88ce00d80207aa8d90b3ce3fdbac83c14499e94971e1cc45",
    "e700b44aabd0c0035ea37d03fe82cf43075426aa10884d703e4b99c0adc42d27",
    "9ff6d674adbd2b142f94af207e6c149d1a04bee0341649897def29ca1e285d67",
    "5136fa74bdfdf323044fe3e07cf0ee722cbdb72f5f78d3a548a62131a105b596",
    "4866eebc5d1ac0a43b2f89e633c12aa7fff5763dbce62db77a9343b5c87dc06c",
    "4eb3ea337b60179ebf79bcd128ddcceffa1be05b14e1451394fad70aba65e187",
    "43b61da85ddf6757577583e99f271056d28cfe950d5d087049a2afe9e5a426e4",
    "46474c7040d5e66a51142183c98fa19d6a663177e16e608e4c6507ceb4349f94",
    "142f9db099deb627d5edac9878c06a73aed4a7dffa5d95d44fb0f164106d5f02"
  ],
  "time": 1715876375,
  "mediantime": 1715875710,
  "nonce": 0,
  "bits": "1a018f82",
  "difficulty": 10750482.53280404,
  "chainwork": "0000000000000000000000000000000000000000000010d533eaa5592fef96e9",
  "auxpow": {
    "tx": {
      "hex": "01000000010000000000000000000000000000000000000000000000000000000000000000ffffffff5e0390fd28172f5669614254432f4d696e6564206279203173746c332f2cfabe6d6dbbf60533b0e65655b23b74a8c51215fcb065f93d68c57b2e2fc69b01647b60fe10000000000000001085545902698538e90bd8fa6a2f00000000000000ffffffff0217d78125000000001976a91493e278b485679cfd2d21441a94bb29dd7c99d72088ac0000000000000000266a24aa21a9edaf8094f6985b7bb7326ce260d3b17a4ba451ba08001ccffd6db6f74266907bab00000000",
      "txid": "96e599b232634127f37a2b7411410bdf6da550eeffb4f575eef7fd6574ccc143",
      "hash": "96e599b232634127f37a2b7411410bdf6da550eeffb4f575eef7fd6574ccc143",
      "size": 226,
      "vsize": 226,
      "version": 1,
      "locktime": 0,
      "vin": [
        {
          "coinbase": "0390fd28172f5669614254432f4d696e6564206279203173746c332f2cfabe6d6dbbf60533b0e65655b23b74a8c51215fcb065f93d68c57b2e2fc69b01647b60fe10000000000000001085545902698538e90bd8fa6a2f00000000000000",
          "sequence": 4294967295
        }
      ],
      "vout": [
        {
          "value": 6.29266199,
          "n": 0,
          "scriptPubKey": {
            "asm": "OP_DUP OP_HASH160 93e278b485679cfd2d21441a94bb29dd7c99d720 OP_EQUALVERIFY OP_CHECKSIG",
            "hex": "76a91493e278b485679cfd2d21441a94bb29dd7c99d72088ac",
            "reqSigs": 1,
            "type": "pubkeyhash",
            "addresses": [
              "DJd3AyR8ogq9Nd6ixWeT27zZLq5FNrbXRa"
            ]
          }
        },
        {
          "value": 0.00000000,
          "n": 1,
          "scriptPubKey": {
            "asm": "OP_RETURN aa21a9edaf8094f6985b7bb7326ce260d3b17a4ba451ba08001ccffd6db6f74266907bab",
            "hex": "6a24aa21a9edaf8094f6985b7bb7326ce260d3b17a4ba451ba08001ccffd6db6f74266907bab",
            "type": "nulldata"
          }
        }
      ],
      "blockhash": "01ab50b98d832987c6dcf2ebe4ae97f9982571ac398b8c25fea975835fd9189e"
    },
    "index": 0,
    "chainindex": 8,
    "merklebranch": [
      "609be52156c593eb67526c53f0baf4b227e45854ed12e4c080a57ecbe9bdf327",
      "d8e093ca35667c8fced733859935161a0cce387c8074a59357d011672116fec2",
      "37ad2d7dab020d8eb659cf6ba4cd1d568ed40b38d46ed6715ab099d258b67f16",
      "62dd52377569cfb10b6740dfffb58dd55a6a43e6b804d5423a255452e6e82e82",
      "688a68122c3f881ef32ae8b6321dbcccb7f7577ecd79155aa6fa31c406b6abe9",
      "2ac907e2537b6bb6be42183edbef7d5aec75b53fba689ae437483f72671deaef",
      "11e9425f492abde9f16b31c3e6dc1cb420e137cb0e966643c99fc4f491fe281e",
      "4649e7ddb5d9c9ead36e5c03d3d6b59b313ed7e0e425a23d225b778a3b5c7bb6",
      "57ba2aa1e09db59e54c3f38794a50f2b0eefebd9bd01e1704649fa596049ca5a",
      "4c6662a24d9b42649bcc9026586a2fb30014493e5761246479c69fb301e5b2ee",
      "80f2bdc98149edbc22bb8b87bf7c7df3077473e4e4d9a0a8fcb24fc18e73a4e4"
    ],
    "chainmerklebranch": [
      "0000000000000000000000000000000000000000000000000000000000000000",
      "f98c4e9736d8eb8bb46299798906695c755369a3df99a93ffdded1713f1cf6e2",
      "48e55233b9707330def98c80a2105eaa5fac8f687d872ffb4b4741fa2bdb247d",
      "c77d206e2f3cc38e18b85aaa89a8f142a9bf0f4106925d39708f91083e7d8594"
    ],
    "parentblock": "00000020a0d30f7c41f11611f86c8cdd7b0ffe875560d3d9250abb6aab5c01aef501373a1621972afec0198088b73f6a123fba3d77a316ee48b27cab85f6e340e8bbcc05493246667a46711946ad89a9"
  },
  "previousblockhash": "e39d56cfa27255ec1b6731121360f92bb3b0f8edf3b53d4769da74fe503c961e",
  "nextblockhash": "0ea899e4f8bb92bd6995d064558f2151346b04b69b7aec64e133725e9cad02fc"
}